{
  "contractName": "QuadraticPoll",
  "abi": [
    {
      "constant": true,
      "inputs": [
        {
          "name": "",
          "type": "uint256"
        }
      ],
      "name": "issues",
      "outputs": [
        {
          "name": "title",
          "type": "string"
        },
        {
          "name": "credits",
          "type": "uint256"
        }
      ],
      "payable": false,
      "stateMutability": "view",
      "type": "function"
    },
    {
      "constant": false,
      "inputs": [],
      "name": "renounceOwnership",
      "outputs": [],
      "payable": false,
      "stateMutability": "nonpayable",
      "type": "function"
    },
    {
      "constant": true,
      "inputs": [],
      "name": "owner",
      "outputs": [
        {
          "name": "",
          "type": "address"
        }
      ],
      "payable": false,
      "stateMutability": "view",
      "type": "function"
    },
    {
      "constant": true,
      "inputs": [],
      "name": "isOwner",
      "outputs": [
        {
          "name": "",
          "type": "bool"
        }
      ],
      "payable": false,
      "stateMutability": "view",
      "type": "function"
    },
    {
      "constant": true,
      "inputs": [],
      "name": "issueCount",
      "outputs": [
        {
          "name": "",
          "type": "uint256"
        }
      ],
      "payable": false,
      "stateMutability": "view",
      "type": "function"
    },
    {
      "constant": true,
      "inputs": [
        {
          "name": "",
          "type": "address"
        }
      ],
      "name": "voters",
      "outputs": [
        {
          "name": "status",
          "type": "uint8"
        },
        {
          "name": "credits",
          "type": "uint256"
        },
        {
          "name": "count",
          "type": "uint256"
        }
      ],
      "payable": false,
      "stateMutability": "view",
      "type": "function"
    },
    {
      "constant": false,
      "inputs": [
        {
          "name": "newOwner",
          "type": "address"
        }
      ],
      "name": "transferOwnership",
      "outputs": [],
      "payable": false,
      "stateMutability": "nonpayable",
      "type": "function"
    },
    {
      "inputs": [],
      "payable": false,
      "stateMutability": "nonpayable",
      "type": "constructor"
    },
    {
      "anonymous": false,
      "inputs": [
        {
          "indexed": false,
          "name": "_name",
          "type": "string"
        },
        {
          "indexed": false,
          "name": "creator",
          "type": "address"
        }
      ],
      "name": "IssueAdded",
      "type": "event"
    },
    {
      "anonymous": false,
      "inputs": [
        {
          "indexed": false,
          "name": "_issueId",
          "type": "uint256"
        },
        {
          "indexed": false,
          "name": "cost",
          "type": "uint256"
        },
        {
          "indexed": false,
          "name": "_voter",
          "type": "address"
        }
      ],
      "name": "Voted",
      "type": "event"
    },
    {
      "anonymous": false,
      "inputs": [
        {
          "indexed": true,
          "name": "previousOwner",
          "type": "address"
        },
        {
          "indexed": true,
          "name": "newOwner",
          "type": "address"
        }
      ],
      "name": "OwnershipTransferred",
      "type": "event"
    },
    {
      "constant": false,
      "inputs": [
        {
          "name": "_title",
          "type": "string"
        }
      ],
      "name": "newIssue",
      "outputs": [
        {
          "name": "",
          "type": "uint256"
        }
      ],
      "payable": false,
      "stateMutability": "nonpayable",
      "type": "function"
    },
    {
      "constant": true,
      "inputs": [
        {
          "name": "_issueId",
          "type": "uint256"
        }
      ],
      "name": "getIssue",
      "outputs": [
        {
          "name": "",
          "type": "uint256"
        },
        {
          "name": "",
          "type": "string"
        },
        {
          "name": "",
          "type": "uint256"
        }
      ],
      "payable": false,
      "stateMutability": "view",
      "type": "function"
    },
    {
      "constant": false,
      "inputs": [
        {
          "name": "_issueId",
          "type": "uint256"
        },
        {
          "name": "_votes",
          "type": "uint256"
        }
      ],
      "name": "vote",
      "outputs": [
        {
          "name": "",
          "type": "uint256"
        }
      ],
      "payable": false,
      "stateMutability": "nonpayable",
      "type": "function"
    },
    {
      "constant": false,
      "inputs": [],
      "name": "register",
      "outputs": [
        {
          "name": "",
          "type": "bool"
        }
      ],
      "payable": false,
      "stateMutability": "nonpayable",
      "type": "function"
    },
    {
      "constant": false,
      "inputs": [],
      "name": "toggleContractActive",
      "outputs": [],
      "payable": false,
      "stateMutability": "nonpayable",
      "type": "function"
    }
  ],
  "bytecode": "0x60806040523480156200001157600080fd5b50336000806101000a81548173ffffffffffffffffffffffffffffffffffffffff021916908373ffffffffffffffffffffffffffffffffffffffff1602179055506000809054906101000a900473ffffffffffffffffffffffffffffffffffffffff1673ffffffffffffffffffffffffffffffffffffffff16600073ffffffffffffffffffffffffffffffffffffffff167f8be0079c531659141344cd1fd0a4f28419497f9722a3daafe3b4186f6b6457e060405160405180910390a360008060146101000a81548160ff02191690831515021790555060006001819055506200011a60405180606001604052806028815260200162001843602891396200017760201b60201c565b50620001456040518060600160405280602f815260200162001814602f91396200017760201b60201c565b50620001706040518060600160405280603081526020016200186b603091396200017760201b60201c565b50620003e0565b60008060149054906101000a900460ff1615620001fc576040517f08c379a00000000000000000000000000000000000000000000000000000000081526004018080602001828103825260188152602001807f44656d6f6372616379206861732073746f707065642e2e2e000000000000000081525060200191505060405180910390fd5b60018054016001819055508160036000600154815260200190815260200160002060000190805190602001906200023592919062000331565b506000600360006001548152602001908152602001600020600101819055507fdb38771ba0c30ee1af0799add6e0d7c7252fdbafe5c8601f559edbd81370c594823360405180806020018373ffffffffffffffffffffffffffffffffffffffff1673ffffffffffffffffffffffffffffffffffffffff168152602001828103825284818151815260200191508051906020019080838360005b83811015620002eb578082015181840152602081019050620002ce565b50505050905090810190601f168015620003195780820380516001836020036101000a031916815260200191505b50935050505060405180910390a16001549050919050565b828054600181600116156101000203166002900490600052602060002090601f016020900481019282601f106200037457805160ff1916838001178555620003a5565b82800160010185558215620003a5579182015b82811115620003a457825182559160200191906001019062000387565b5b509050620003b49190620003b8565b5090565b620003dd91905b80821115620003d9576000816000905550600101620003bf565b5090565b90565b61142480620003f06000396000f3fe608060405234801561001057600080fd5b50600436106100b45760003560e01c80638f32d59b116100715780638f32d59b146102b6578063976b3113146102d857806398cf147a1461038d578063a3ec138d146103ab578063b384abef1461041f578063f2fde38b1461046b576100b4565b8063018493e1146100b957806304e15de5146101885780631385d24c146102365780631aa3a00814610240578063715018a6146102625780638da5cb5b1461026c575b600080fd5b610172600480360360208110156100cf57600080fd5b81019080803590602001906401000000008111156100ec57600080fd5b8201836020820111156100fe57600080fd5b8035906020019184600183028401116401000000008311171561012057600080fd5b91908080601f016020809104026020016040519081016040528093929190818152602001838380828437600081840152601f19601f8201169050808301925050505050505091929192905050506104af565b6040518082815260200191505060405180910390f35b6101b46004803603602081101561019e57600080fd5b8101908080359060200190929190505050610663565b6040518080602001838152602001828103825284818151815260200191508051906020019080838360005b838110156101fa5780820151818401526020810190506101df565b50505050905090810190601f1680156102275780820380516001836020036101000a031916815260200191505b50935050505060405180910390f35b61023e61071f565b005b6102486107c5565b604051808215151515815260200191505060405180910390f35b61026a610944565b005b610274610a7d565b604051808273ffffffffffffffffffffffffffffffffffffffff1673ffffffffffffffffffffffffffffffffffffffff16815260200191505060405180910390f35b6102be610aa6565b604051808215151515815260200191505060405180910390f35b610304600480360360208110156102ee57600080fd5b8101908080359060200190929190505050610afd565b6040518084815260200180602001838152602001828103825284818151815260200191508051906020019080838360005b83811015610350578082015181840152602081019050610335565b50505050905090810190601f16801561037d5780820380516001836020036101000a031916815260200191505b5094505050505060405180910390f35b610395610bda565b6040518082815260200191505060405180910390f35b6103ed600480360360208110156103c157600080fd5b81019080803573ffffffffffffffffffffffffffffffffffffffff169060200190929190505050610be0565b604051808460018111156103fd57fe5b60ff168152602001838152602001828152602001935050505060405180910390f35b6104556004803603604081101561043557600080fd5b810190808035906020019092919080359060200190929190505050610c17565b6040518082815260200191505060405180910390f35b6104ad6004803603602081101561048157600080fd5b81019080803573ffffffffffffffffffffffffffffffffffffffff169060200190929190505050610f2a565b005b60008060149054906101000a900460ff1615610533576040517f08c379a00000000000000000000000000000000000000000000000000000000081526004018080602001828103825260188152602001807f44656d6f6372616379206861732073746f707065642e2e2e000000000000000081525060200191505060405180910390fd5b600180540160018190555081600360006001548152602001908152602001600020600001908051906020019061056a92919061130c565b506000600360006001548152602001908152602001600020600101819055507fdb38771ba0c30ee1af0799add6e0d7c7252fdbafe5c8601f559edbd81370c594823360405180806020018373ffffffffffffffffffffffffffffffffffffffff1673ffffffffffffffffffffffffffffffffffffffff168152602001828103825284818151815260200191508051906020019080838360005b8381101561061e578082015181840152602081019050610603565b50505050905090810190601f16801561064b5780820380516001836020036101000a031916815260200191505b50935050505060405180910390a16001549050919050565b6003602052806000526040600020600091509050806000018054600181600116156101000203166002900480601f01602080910402602001604051908101604052809291908181526020018280546001816001161561010002031660029004801561070f5780601f106106e45761010080835404028352916020019161070f565b820191906000526020600020905b8154815290600101906020018083116106f257829003601f168201915b5050505050908060010154905082565b610727610aa6565b610799576040517f08c379a00000000000000000000000000000000000000000000000000000000081526004018080602001828103825260208152602001807f4f776e61626c653a2063616c6c6572206973206e6f7420746865206f776e657281525060200191505060405180910390fd5b600060149054906101000a900460ff1615600060146101000a81548160ff021916908315150217905550565b60008060149054906101000a900460ff1615610849576040517f08c379a00000000000000000000000000000000000000000000000000000000081526004018080602001828103825260188152602001807f44656d6f6372616379206861732073746f707065642e2e2e000000000000000081525060200191505060405180910390fd5b6000600260003373ffffffffffffffffffffffffffffffffffffffff1673ffffffffffffffffffffffffffffffffffffffff168152602001908152602001600020600201541415610941576010600260003373ffffffffffffffffffffffffffffffffffffffff1673ffffffffffffffffffffffffffffffffffffffff168152602001908152602001600020600101819055506001600260003373ffffffffffffffffffffffffffffffffffffffff1673ffffffffffffffffffffffffffffffffffffffff16815260200190815260200160002060000160006101000a81548160ff0219169083600181111561093b57fe5b02179055505b90565b61094c610aa6565b6109be576040517f08c379a00000000000000000000000000000000000000000000000000000000081526004018080602001828103825260208152602001807f4f776e61626c653a2063616c6c6572206973206e6f7420746865206f776e657281525060200191505060405180910390fd5b600073ffffffffffffffffffffffffffffffffffffffff166000809054906101000a900473ffffffffffffffffffffffffffffffffffffffff1673ffffffffffffffffffffffffffffffffffffffff167f8be0079c531659141344cd1fd0a4f28419497f9722a3daafe3b4186f6b6457e060405160405180910390a360008060006101000a81548173ffffffffffffffffffffffffffffffffffffffff021916908373ffffffffffffffffffffffffffffffffffffffff160217905550565b60008060009054906101000a900473ffffffffffffffffffffffffffffffffffffffff16905090565b60008060009054906101000a900473ffffffffffffffffffffffffffffffffffffffff1673ffffffffffffffffffffffffffffffffffffffff163373ffffffffffffffffffffffffffffffffffffffff1614905090565b60006060600083600360008681526020019081526020016000206000016003600087815260200190815260200160002060010154818054600181600116156101000203166002900480601f016020809104026020016040519081016040528092919081815260200182805460018160011615610100020316600290048015610bc65780601f10610b9b57610100808354040283529160200191610bc6565b820191906000526020600020905b815481529060010190602001808311610ba957829003601f168201915b505050505091509250925092509193909250565b60015481565b60026020528060005260406000206000915090508060000160009054906101000a900460ff16908060010154908060020154905083565b60008060149054906101000a900460ff1615610c9b576040517f08c379a00000000000000000000000000000000000000000000000000000000081526004018080602001828103825260188152602001807f44656d6f6372616379206861732073746f707065642e2e2e000000000000000081525060200191505060405180910390fd5b600180811115610ca757fe5b600260003373ffffffffffffffffffffffffffffffffffffffff1673ffffffffffffffffffffffffffffffffffffffff16815260200190815260200160002060000160009054906101000a900460ff166001811115610d0257fe5b14610d0c57600080fd5b6000610d218384610fb090919063ffffffff16565b9050610400811115610d3257600080fd5b80600260003373ffffffffffffffffffffffffffffffffffffffff1673ffffffffffffffffffffffffffffffffffffffff168152602001908152602001600020600101541015610d8157600080fd5b6001600260003373ffffffffffffffffffffffffffffffffffffffff1673ffffffffffffffffffffffffffffffffffffffff16815260200190815260200160002060020160008282540192505081905550610e2781600260003373ffffffffffffffffffffffffffffffffffffffff1673ffffffffffffffffffffffffffffffffffffffff1681526020019081526020016000206001015461103690919063ffffffff16565b600260003373ffffffffffffffffffffffffffffffffffffffff1673ffffffffffffffffffffffffffffffffffffffff16815260200190815260200160002060010181905550610e9681600360008781526020019081526020016000206001015461108090919063ffffffff16565b60036000868152602001908152602001600020600101819055507fd91ecafccf238642dccd41161308b3eebe62a12bc5819daf5164780c221ec95b848233604051808481526020018381526020018273ffffffffffffffffffffffffffffffffffffffff1673ffffffffffffffffffffffffffffffffffffffff168152602001935050505060405180910390a15092915050565b610f32610aa6565b610fa4576040517f08c379a00000000000000000000000000000000000000000000000000000000081526004018080602001828103825260208152602001807f4f776e61626c653a2063616c6c6572206973206e6f7420746865206f776e657281525060200191505060405180910390fd5b610fad81611108565b50565b600080831415610fc35760009050611030565b6000828402905082848281610fd457fe5b041461102b576040517f08c379a00000000000000000000000000000000000000000000000000000000081526004018080602001828103825260218152602001806113d86021913960400191505060405180910390fd5b809150505b92915050565b600061107883836040518060400160405280601e81526020017f536166654d6174683a207375627472616374696f6e206f766572666c6f77000081525061124c565b905092915050565b6000808284019050838110156110fe576040517f08c379a000000000000000000000000000000000000000000000000000000000815260040180806020018281038252601b8152602001807f536166654d6174683a206164646974696f6e206f766572666c6f77000000000081525060200191505060405180910390fd5b8091505092915050565b600073ffffffffffffffffffffffffffffffffffffffff168173ffffffffffffffffffffffffffffffffffffffff16141561118e576040517f08c379a00000000000000000000000000000000000000000000000000000000081526004018080602001828103825260268152602001806113b26026913960400191505060405180910390fd5b8073ffffffffffffffffffffffffffffffffffffffff166000809054906101000a900473ffffffffffffffffffffffffffffffffffffffff1673ffffffffffffffffffffffffffffffffffffffff167f8be0079c531659141344cd1fd0a4f28419497f9722a3daafe3b4186f6b6457e060405160405180910390a3806000806101000a81548173ffffffffffffffffffffffffffffffffffffffff021916908373ffffffffffffffffffffffffffffffffffffffff16021790555050565b60008383111582906112f9576040517f08c379a00000000000000000000000000000000000000000000000000000000081526004018080602001828103825283818151815260200191508051906020019080838360005b838110156112be5780820151818401526020810190506112a3565b50505050905090810190601f1680156112eb5780820380516001836020036101000a031916815260200191505b509250505060405180910390fd5b5060008385039050809150509392505050565b828054600181600116156101000203166002900490600052602060002090601f016020900481019282601f1061134d57805160ff191683800117855561137b565b8280016001018555821561137b579182015b8281111561137a57825182559160200191906001019061135f565b5b509050611388919061138c565b5090565b6113ae91905b808211156113aa576000816000905550600101611392565b5090565b9056fe4f776e61626c653a206e6577206f776e657220697320746865207a65726f2061646472657373536166654d6174683a206d756c7469706c69636174696f6e206f766572666c6f77a165627a7a72305820aeaf63f3aff12aa331489c54181e39444032b021d87375ef42870e3735d54111002954686520726570726573656e7461746976657320696e2074686520696e7465726e6174696f6e616c2073706865726554686520646576656c6f706d656e74206f6620646f6d657374696320696e737469747574696f6e73496e636c7573696f6e2043617269626265616e206e6174696f6e7320696e20746865204166726963616e20556e696f6e",
  "source": "pragma solidity ^0.5.0;\n\nimport \"./SafeMath.sol\";\nimport \"./Ownable.sol\";\n\n/// @title Quadratic Voting\n/// @author Johns Beharry\n/// @notice Please don't use this contract in an actual democratic election.\ncontract QuadraticPoll is Ownable {\n\tusing SafeMath for uint256;\n\n\tbool private stopped;\n\tuint256 public issueCount;\n\n\t// constants\n\tuint256 constant STARTING_CREDIT = 16;\n\tuint256 constant TOTAL_SUPPLY = 1024;\n\n\tenum Status {\n\t\tUNKNOWN,\n\t\tREGISTERED\n\t}\n\n\tstruct Issue {\n\t\tstring title;\n\t\tuint256 credits;\n\t}\n\n\tstruct Voter {\n\t\tStatus status;\n\t\tuint256 credits;\n\t\tuint256 count;\n\t\tmapping(uint256 => Issue) votes;\n\t}\n\n\tmapping(address => Voter) public voters;\n\tmapping(uint256 => Issue) public issues;\n\n\tevent IssueAdded(\n\t\tstring _name,\n\t\taddress creator\n\t);\n\n\tevent Voted(\n\t\tuint256 _issueId,\n\t\tuint256 cost,\n\t\taddress _voter\n\t);\n\n\t// Rejects if contract has been stopped\n\tmodifier stopInEmergency {\n\t\trequire(!stopped, \"Democracy has stopped...\");\n\t\t_;\n\t}\n\n\t// Check if a voter has been registered\n\tmodifier isRegistered() {\n\t\trequire(voters[msg.sender].status == Status.REGISTERED);\n\t\t_;\n\t}\n\n\tconstructor()\n\tpublic {\n\t\tstopped = false;\n\t\tissueCount = 0;\n\t\tnewIssue('The development of domestic institutions');\n\t\tnewIssue('The representatives in the international sphere');\n\t\tnewIssue('Inclusion Caribbean nations in the African Union');\n\t}\n\n\t/// Create a new issue\n\t/// @param _title The name of the issue\n\t/// @return id of the issue\n\tfunction newIssue(string memory _title)\n\tpublic\n\tstopInEmergency\n\treturns (uint256) {\n\t\tissueCount = issueCount + 1;\n\t\tissues[issueCount].title = _title;\n\t\tissues[issueCount].credits = 0;\n\t\temit IssueAdded(_title, msg.sender);\n\t\treturn issueCount;\n\t}\n\n\t/// Get an new issue\n\t/// @param _issueId The name of the issue\n\t/// @return title ofv the issue\n\tfunction getIssue(uint256 _issueId)\n\texternal\n\tview\n\treturns (uint256, string memory, uint256) {\n\t\treturn(_issueId, issues[_issueId].title, issues[_issueId].credits);\n\t}\n\n\t/// Get an new issue\n\t/// @param _issueId The name of the issue\n\t/// @return title ofv the issue\n\tfunction vote(\n\t\tuint256 _issueId,\n\t\tuint256 _votes\n\t)\n\texternal\n\tstopInEmergency\n\tisRegistered\n\treturns (uint256)\n\t{\n\t\tuint256 cost = _votes.mul(_votes);\n\n\t\trequire(cost <= TOTAL_SUPPLY); // so we can mitigate an overflow error with user input\n\t\trequire(voters[msg.sender].credits >= cost); // voter has enough credits \n\n\t\tvoters[msg.sender].count += 1;\n\t\tvoters[msg.sender].credits = voters[msg.sender].credits.sub(cost);\n\t\tissues[_issueId].credits = issues[_issueId].credits.add(cost);\n\n\t\temit Voted(_issueId, cost, msg.sender);\n\t}\n\n\t/// Allocate credits to new voters\n\t/// @return title of the issue\n\tfunction register()\n\texternal\n\tstopInEmergency\n\treturns (bool)\n\t{\n\t\tif(voters[msg.sender].count == 0) {\n\t\t\tvoters[msg.sender].credits = STARTING_CREDIT;\n\t\t\tvoters[msg.sender].status = Status.REGISTERED;\n\t\t}\n\t}\n\n\t/// Circuit Breaker for emergancy stopping of democracy. Use carefully\n\tfunction toggleContractActive()\n\tpublic\n\tonlyOwner\n\t{\n\t\tstopped = !stopped;\n\t}\n\n}\n",
  "sourcePath": "/Users/johns/Lessons/qv/contracts/QuadraticPoll.sol",
  "compiler": {
    "name": "solc",
    "version": "0.5.8+commit.23d335f2.Emscripten.clang"
  },
  "schemaVersion": "3.0.11",
  "updatedAt": "2019-08-02T02:13:20.180Z",
  "devdoc": {
    "author": "Johns Beharry",
    "methods": {
      "getIssue(uint256)": {
        "params": {
          "_issueId": "The name of the issue"
        },
        "return": "title ofv the issue"
      },
      "isOwner()": {
        "details": "Returns true if the caller is the current owner."
      },
      "newIssue(string)": {
        "params": {
          "_title": "The name of the issue"
        },
        "return": "id of the issue"
      },
      "owner()": {
        "details": "Returns the address of the current owner."
      },
      "register()": {
        "return": "title of the issue"
      },
      "renounceOwnership()": {
        "details": "Leaves the contract without owner. It will not be possible to call `onlyOwner` functions anymore. Can only be called by the current owner.     * NOTE: Renouncing ownership will leave the contract without an owner, thereby removing any functionality that is only available to the owner."
      },
      "transferOwnership(address)": {
        "details": "Transfers ownership of the contract to a new account (`newOwner`). Can only be called by the current owner."
      },
      "vote(uint256,uint256)": {
        "params": {
          "_issueId": "The name of the issue"
        },
        "return": "title ofv the issue"
      }
    },
    "title": "Quadratic Voting"
  },
  "userdoc": {
    "methods": {
      "getIssue(uint256)": {
        "notice": "Get an new issue"
      },
      "newIssue(string)": {
        "notice": "Create a new issue"
      },
      "register()": {
        "notice": "Allocate credits to new voters"
      },
      "toggleContractActive()": {
        "notice": "Circuit Breaker for emergancy stopping of democracy. Use carefully"
      },
      "vote(uint256,uint256)": {
        "notice": "Get an new issue"
      }
    },
    "notice": "Please don't use this contract in an actual democratic election."
  }
}